:1000000007C1000035C1000033C1000031C100004C
:100010002FC100002DC100002BC1000029C100002C
:1000200027C1000025C1000023C1000021C100003C
:100030001FC100001DC100001BC1000019C100004C
:1000400017C1000015C1000013C1000011C100005C
:100050000FC100000DC100000BC100005CC5000015
:1000600007C1000022C50000F7C4000001C1000064
:10007000FFC00000FDC00000FBC00000F9C0000090
:10008000F7C00000F5C00000F3C00000F1C00000A0
:10009000EFC00000EDC00000EBC00000E9C00000B0
:1000A000E7C00000E5C00000E3C00000E1C00000C0
:1000B000DFC00000DDC00000DBC00000D9C00000D0
:1000C000D7C00000D5C00000D3C00000D1C00000E0
:1000D000CFC00000CDC00000CBC00000C9C00000F0
:1000E000C7C00000C702CA02B902BD02C1020103B3
:1000F000CE02D202D802DC02E002E602EA02EE02FE
:100100000103F402F802FC0200000A0B02090C0DC4
:100110000E080703040100000000000000000000BA
:1001200000000000000000000000000000000000CF
:10013000000000001211100000000000000000008C
:1001400000000000000000000000000000000000AF
:100150002200250028002B002E003100340002016F
:100160000000050108010B01000021002400270008
:100170002A002D00300033000101000004010701B6
:100180000A0105050505070508080808020202021C
:100190000A0A080804040404010101010101010123
:1001A0000303030303030303040707070C0C0C0CEE
:1001B0000C0C0C0C020202020606060606060606D7
:1001C0000B0B0B0B0B0B0B0B010210202008081064
:1001D00020401020408002010201080402010102B7
:1001E0000408102040808040201008040201800490
:1001F00002018040201008040201080402010102EB
:100200000408102040800102040810204080D50519
:1002100011241FBECFEFD1E2DEBFCDBF00E00CBF87
:1002200012E0A0E0B2E0EEEDF6E100E00BBF02C0AC
:1002300007900D92AE33B107D9F723E0AEE3B2E0F9
:1002400001C01D92AF34B207E1F711E0C8E0D1E080
:1002500000E006C021970109802FFE010E94610B7A
:10026000C730D10780E00807A9F704D50C946D0BBF
:10027000C7CE90E0FC01E853FE4F2491FC01EE57FD
:10028000FE4F8491882399F090E0880F991FFC011C
:10029000E859FE4FA591B491FC01E25BFE4F8591B8
:1002A00094918FB7F894EC91E22BEC938FBF089563
:1002B000E091AC02F091AD020190F081E02D682F49
:1002C0008CEA92E01994CF92DF92EF92FF920F9313
:1002D0001F93CF93DF936C017A018B01C0E0D0E0D4
:1002E000CE15DF0589F0D8016D918D01D601ED9114
:1002F000FC910190F081E02DC6011995892B11F434
:100300007E0102C02196ECCFC701DF91CF911F91F2
:100310000F91FF90EF90DF90CF900895089580E0C7
:1003200090E00895FC01538D448D252F30E0842FFB
:1003300090E0821B930B541710F0CF96089501970D
:100340000895FC01918D828D981761F0828DDF01F7
:10035000A80FB11D5D968C91928D9F5F9F73928FB8
:1003600090E008958FEF9FEF0895FC01918D828DAD
:10037000981731F0828DE80FF11D858D90E008957A
:100380008FEF9FEF0895FC01918D228D892F90E0D2
:10039000805C9F4F821B91098F73992708958CEA87
:1003A00092E0F1DF21E0892B09F420E0822F08950B
:1003B000FC01848DDF01A80FB11DA35ABF4F2C9102
:1003C000848D90E001968F739927848FA689B789D1
:1003D0002C93A089B1898C9180648C93938D848DAA
:1003E000981306C00288F389E02D80818F7D808379
:1003F0000895EF92FF920F931F93CF93DF93EC0139
:1004000081E0888F9B8D8C8D981305C0E889F989D0
:10041000808185FD23C0F62E0B8D10E00F5F1F4FEE
:100420000F731127E02E8C8DE8120BC00FB607FC5E
:10043000FACFE889F989808185FFF5CFCE01B8DF51
:10044000F2CF8B8DFE01E80FF11DE35AFF4FF082D2
:100450000B8FEA89FB898081806207C0EE89FF8962
:100460006083E889F98980818064808381E090E0FD
:10047000DF91CF911F910F91FF90EF900895CF934F
:10048000DF93EC01888D8823C1F0EA89FB898081A4
:1004900085FD05C0A889B9898C9186FD0EC00FB66F
:1004A00007FCF5CF808185FFF2CFA889B9898C91AF
:1004B00085FFEDCFCE017CDFE8CFDF91CF910895AE
:1004C00080E090E0892B19F06ADF811125C080E07F
:1004D00090E0892B41F080E090E0892B21F00E9490
:1004E000000081111CC080E090E0892B41F080E089
:1004F00090E0892B21F00E940000811113C080E060
:1005000090E0892BA1F080E090E0892B81F00E949F
:10051000000081110AC008950E940000D8CF0E94F7
:100520000000E1CF0E940000EACF0C940000089583
:10053000362F90E0FC01E85FFE4F4491FC01E85348
:10054000FE4F2491FC01EE57FE4F9491992309F43C
:100550006BC0442309F455C050E0FA013197E231F1
:10056000F10508F04EC08827EE58FF4F8F4F0C94CE
:10057000610B809180008F7707C0809180008F7D14
:1005800003C080918000877F809380003AC084B54B
:100590008F7702C084B58F7D84BD33C08091B00059
:1005A0008F7703C08091B0008F7D8093B00029C009
:1005B000809190008F7707C0809190008F7D03C05D
:1005C00080919000877F809390001BC08091A00055
:1005D0008F7707C08091A0008F7D03C08091A0001D
:1005E000877F8093A0000DC0809120018F7707C086
:1005F000809120018F7D03C080912001877F8093AF
:100600002001E92FF0E0EE0FFF1FE25BFE4FA59106
:10061000B4918FB7F894EC91311103C020952E233B
:1006200001C02E2B2C938FBF0895CF93DF9360E0F2
:100630008CE07EDF60E088E07BDFC7E0D0E060E058
:1006400084E076DF8091490390E00C2E02C09595FE
:1006500087950A94E2F780FF02C061E001C060E084
:1006600088E066DF61E084E063DF219740F761E0C6
:100670008CE0DF91CF915CCF8CE0FBDD87E0F9DD92
:1006800088E0F7DD84E0F5DD10924903CEDF60E01D
:1006900087E04ECF863308F0865390917B00282F59
:1006A0002870977F922B90937B0087708064809353
:1006B0007C0080917A00806480937A0080917A0037
:1006C00086FDFCCF809178002091790090E0922BFC
:1006D00008952FB7F894609143027091440280917D
:1006E0004502909146022FBF0895FC01808182301F
:1006F00079F018F4813031F00895833079F0843046
:1007000099F0089570E070938900609388000895CF
:1007100070E070939D0060939C00089570E070936A
:10072000A9006093A800089570E070939900609309
:1007300098000895FC018081823049F018F48130DE
:1007400079F00895833031F0843039F0089524E051
:1007500031E008C027E035E005C026E030E002C007
:1007600023E032E06230A9F0643029F16130B1F564
:1007700081E090E0AC0101C0440F2A95EAF7409572
:1007800001C0880F3A95EAF790914903892B842399
:1007900022C081E090E0AC0101C0440F3A95EAF735
:1007A000342F309540914903342301C0880F2A9596
:1007B000EAF7832B10C041E050E0CA0101C0880F66
:1007C0003A95EAF701C0440F2A95EAF7842B809501
:1007D0009091490389238093490327CF0895009777
:1007E00061F0FC0101900020E9F73197AF01481B4F
:1007F000590BBC018CEA92E066CD80E090E0089550
:100800008F929F92AF92BF920F931F93CF93DF93DC
:10081000CDB7DEB7A1970FB6F894DEBF0FBECDBF40
:1008200019A2423008F44AE08E010F5D1F4F842E5A
:10083000912CA12CB12CA501940121D7E62FB9014F
:10084000CA0101501109EA3014F4E05D01C0E95C0D
:10085000D801EC93232B242B252B69F7C801BFDF8C
:10086000A1960FB6F894DEBF0FBECDBFDF91CF913A
:100870001F910F91BF90AF909F908F900895CF924E
:10088000DF92EF92FF92CF93DF936C01990FEE0806
:10089000FF08F7FE15C08DE20BDDEC016627772718
:1008A000CB016C197D098E099F094AE0A9DF8C0FE5
:1008B0009D1FDF91CF91FF90EF90DF90CF90089533
:1008C0004AE0C701B601DF91CF91FF90EF90DF9032
:1008D000CF9096CF84CF4F925F926F927F928F92FC
:1008E0009F92AF92BF92CF92DF92EF92FF926B01F5
:1008F0007C01B42E9B01AC01BED6882319F082E3A3
:1009000092E024C026013701E89477F82FEF3FEFFB
:100910004FE75FE7C301B201AED681110CC02FEFE4
:100920003FEF4FE75FE7C301B201EFD418161CF4A5
:1009300086E392E00BC02FEF3FEF4FE75FE4C70184
:10094000B60132D618167CF48AE392E0FF90EF905D
:10095000DF90CF90BF90AF909F908F907F906F90DF
:100960005F904F903CCF2FEF3FEF4FE75FECC70119
:10097000B601CBD487FDE8CF20E030E0A901C70164
:10098000B601C3D487FF08C08DE292DC4C01F7FAB0
:10099000F094F7F8F09402C0812C912CA12C60E027
:1009A00070E080E09FE3AB1439F020E030E040E2FB
:1009B00051E4AFD4A394F7CF9B01AC01C701B601BA
:1009C00040D42B013C0112D56B017C013BD59B012E
:1009D000AC01C301B20134D42B013C014AE0C70190
:1009E000B6010EDF7C01E80CF91CBB2021F08EE281
:1009F0005FDCE80EF91EDB2CDD20F9F020E030E0B2
:100A000040E251E4C301B201D3D52B013C01EED445
:100A10004B01A12CB12C4AE0C501B401F1DEE80E76
:100A2000F91EC501B4010ED59B01AC01C301B20191
:100A300007D42B013C01DA94DFCFC701FF90EF9080
:100A4000DF90CF90BF90AF909F908F907F906F90EE
:100A50005F904F9008953DD61F920F920FB60F9260
:100A600011240BB60F922F933F934F935F936F9385
:100A70007F938F939F93AF93BF93EF93FF938CEAF2
:100A800092E096DCFF91EF91BF91AF919F918F9192
:100A90007F916F915F914F913F912F910F900BBE7E
:100AA0000F900FBE0F901F9018951F920F920FB6C8
:100AB0000F9211240BB60F922F938F939F93EF9366
:100AC000FF93E091BC02F091BD028081E091C202EF
:100AD000F091C30282FD12C090818091C5028F5FA8
:100AE0008F732091C602821751F0E091C502F0E0A9
:100AF000E455FD4F958F8093C50201C08081FF9121
:100B0000EF919F918F912F910F900BBE0F900FBE81
:100B10000F901F9018951F920F920FB60F921124ED
:100B20002F933F938F939F93AF93BF9380914302F3
:100B300090914402A0914502B09146023091420248
:100B400023E0230F2D3720F40196A11DB11D05C010
:100B500026E8230F0296A11DB11D20934202809327
:100B6000430290934402A0934502B09346028091C1
:100B70003E0290913F02A0914002B0914102019645
:100B8000A11DB11D80933E0290933F02A0934002AD
:100B9000B0934102BF91AF919F918F913F912F915F
:100BA0000F900FBE0F901F901895CF93DF93ECEA34
:100BB000F2E01382128288EE93E0A0E0B0E084833A
:100BC0009583A683B78384E292E09183808385EC4A
:100BD00090E09587848784EC90E09787868780EC07
:100BE00090E0918B808B81EC90E0938B828B82ECF8
:100BF00090E0958B848B86EC90E0978B868B118EA2
:100C0000128E138E148E10924A03EDE4F3E0C1E0CD
:100C1000C083C18331DD80914903837F8093490381
:100C200004DDE0E8F0E0808181688083D9E0D09342
:100C3000810010928900109288008BE01ADBEBE4AF
:100C4000F3E082E08083C18317DD809149038D7ECC
:100C500080934903EADCE0E9F0E0808189608083E9
:100C6000D093910010929D0010929C0083E0DF9140
:100C7000CF91FFCACF93DF9300D01F92CDB7DEB7DD
:100C8000789484B5826084BD84B5816084BD85B567
:100C9000826085BD85B5816085BD80916E00816073
:100CA00080936E0010928100809181008260809319
:100CB000810080918100816080938100809180001B
:100CC0008160809380008091B10084608093B10046
:100CD0008091B00081608093B0008091910082602B
:100CE0008093910080919100816080939100809128
:100CF00090008160809390008091A1008260809339
:100D0000A1008091A10081608093A1008091A0004A
:100D100081608093A00080912101826080932101F5
:100D20008091210181608093210180912001816067
:100D30008093200180917A00846080937A00809172
:100D40007A00826080937A0080917A00816080933B
:100D50007A0080917A00806880937A001092C100B6
:100D600060E08DE493E0C1DC60E08BE493E0BDDC07
:100D700064E08DE493E0DEDC64E08BE493E0DADCB5
:100D8000E091BC02F091BD0282E08083E091B80264
:100D9000F091B9021082E091BA02F091BB028FEC9F
:100DA00080831092C402E091C002F091C10286E0FB
:100DB0008083E091BE02F091BF02808180618083D8
:100DC000E091BE02F091BF02808188608083E09153
:100DD000BE02F091BF02808180688083E091BE02F4
:100DE000F091BF0280818F7D808310926202109209
:100DF00061021092600210925F02CC24CA94DC2C33
:100E00007601C0925B02D0925C02E0925D02F092A9
:100E10005E02C0925702D0925802E0925902F092BC
:100E20005A0257DC60935302709354028093550228
:100E3000909356026093A3027093A4028093A5023C
:100E40009093A602109252021092510210925002F8
:100E500010924F02C0924B02D0924C02E0924D028F
:100E6000F0924E02C0924702D0924802E0924902AC
:100E7000F0924A021092AB028091AB0281110DC038
:100E800028DC6093A7027093A8028093A902909334
:100E9000AA0281E08093AB0223C0C090A702D09049
:100EA000A802E090A902F090AA0213DCDC01CB01B9
:100EB0000A97A109B109C816D906EA06FB0680F40B
:100EC0006AEF8BE493E011DC62E38DE493E00DDCE8
:100ED00061E08BE493E02EDC61E08DE493E02ADCBA
:100EE000F8DB0091A3021091A4022091A502309199
:100EF000A602DC01CB01801B910BA20BB30B069762
:100F0000A105B10508F49AC1E4DB6093A3027093D4
:100F1000A4028093A5029093A6028EE3BBDB20E09F
:100F200034E0281B390B3093800220937F028FE33B
:100F3000B1DBA0E0B4E0A81BB90BB0938202A09390
:100F4000810280E4A7DBE0E0F4E0E81BF90BF0931A
:100F50008402E093830281E49DDB20E034E0281BDF
:100F6000390B309386022093850282E493DBA0E064
:100F7000B4E0A81BB90BB0938802A093870283E466
:100F800089DBE0E0F4E0E81BF90BF0938A02E093E0
:100F9000890284E47FDB20E034E0281B390B3093A6
:100FA0008C0220938B0285E475DBA0E0B4E0A81BE3
:100FB000B90BB0938E02A0938D028DE36BDBE0E062
:100FC000F4E0E81BF90BF0937E02E0937D0286E3E8
:100FD00061DB20E034E0281B390B30937C02209346
:100FE0007B028FE7282E82E0382E00E012E0812C71
:100FF000912C540175016401D1016D917D911D0108
:1010000080E090E01FD22B013C01F8012191319149
:10101000419151918F01CCD29B01AC01C701B60126
:1010200010D16B017C01A3019201C501B40109D16A
:101030004B015C01F2E000321F07F1F69B01AC01AD
:10104000C701B60166D16B017C0160939F0270936A
:10105000A0028093A1029093A20220E030E046E932
:1010600053E4A6D24B015C0160937702709378023F
:101070008093790290937A02A7019601C701B60185
:10108000E0D02BE037ED43EA5BE392D2209173028C
:10109000309174024091750250917602D2D02B01AA
:1010A0003C01609373027093740280937502909375
:1010B000760220919B0230919C0240919D025091BA
:1010C0009E02C701B601BCD020E030E040E251E40E
:1010D0006FD22BE037ED43EA5BE31BD169837A8360
:1010E0008B839C8360936F02709370028093710274
:1010F00090937202A3019201C501B401A2D029818B
:101100003A814B815C819DD04B015C0160936B0205
:1011100070936C0280936D0290936E0229EE3BEF08
:101120004CE850E445D22B013C0160936702709378
:1011300068028093690290936A0220E030E0A9017E
:1011400033D2181644F4A301920160E070E080E409
:1011500091E476D007C020E030E040E451E4C301E0
:10116000B2016FD020E030E040E05FE321D22EE614
:1011700034E340E05DE31CD2609363027093640249
:1011800080936502909366029B01AC015AD02B01BB
:101190003C0128EA35E34DE05EE3C501B40108D225
:1011A00069837A838B839C839B01AC01C301B20169
:1011B00047D02EE634E340E85DE3ABD04B015C0161
:1011C00060939702709398028093990290939A0289
:1011D00029813A814B815C81C301B20132D02EE674
:1011E00034E340E85DE395D02B013C01609393022A
:1011F00070939402809395029093960225E535E5CD
:1012000045ED51E4C501B401D3D1EBD07093900208
:1012100060938F0225E535E545ED51E4C301B20148
:10122000C7D1DFD07093920260939102C0929B026B
:10123000D0929C02E0929D02F0929E0241D91CCE77
:101240005058BB27AA270ED075C166D130F06BD19C
:1012500020F031F49F3F11F41EF45BC10EF4E095D1
:10126000E7FB51C1E92F77D180F3BA176207730703
:101270008407950718F071F49EF58FC10EF4E09580
:101280000B2EBA2FA02D0B01B90190010C01CA0140
:10129000A0011124FF27591B99F0593F50F4503EEB
:1012A00068F11A16F040A22F232F342F4427585FDD
:1012B000F3CF469537952795A795F0405395C9F7F5
:1012C0007EF41F16BA0B620B730B840BBAF09150AD
:1012D000A1F0FF0FBB1F661F771F881FC2F70EC04C
:1012E000BA0F621F731F841F48F48795779567951F
:1012F000B795F7959E3F08F0B3CF9395880F08F008
:101300009927EE0F979587950895D9D008F481E035
:1013100008950CD00FC107D140F0FED030F021F479
:101320005F3F19F0F0C0511139C1F3C014D198F3E7
:101330009923C9F35523B1F3951B550BBB27AA2756
:1013400062177307840738F09F5F5F4F220F331FC8
:10135000441FAA1FA9F333D00E2E3AF0E0E830D094
:1013600091505040E695001CCAF729D0FE2F27D097
:10137000660F771F881FBB1F261737074807AB0765
:10138000B0E809F0BB0B802DBF01FF2793585F4FDA
:101390002AF09E3F510568F0B6C000C15F3FECF3F4
:1013A000983EDCF3869577956795B795F7959F5F9F
:1013B000C9F7880F911D9695879597F90895E1E0F3
:1013C000660F771F881FBB1F621773078407BA0752
:1013D00020F0621B730B840BBA0BEE1F88F7E095AD
:1013E000089504D06894B111D9C00895BCD088F094
:1013F0009F5790F0B92F9927B751A0F0D1F0660F01
:10140000771F881F991F1AF0BA95C9F712C0B1301B
:1014100081F0C3D0B1E00895C0C0672F782F88272E
:10142000B85F39F0B93FCCF3869577956795B3955A
:10143000D9F73EF490958095709561957F4F8F4FC9
:101440009F4F0895E89409C097FB3EF490958095CE
:10145000709561957F4F8F4F9F4F9923A9F0F92F7A
:1014600096E9BB279395F695879577956795B795F8
:10147000F111F8CFFAF4BB0F11F460FF1BC06F5FDE
:101480007F4F8F4F9F4F16C0882311F096E911C0F0
:10149000772321F09EE8872F762F05C0662371F011
:1014A00096E8862F70E060E02AF09A95660F771F25
:1014B000881FDAF7880F9695879597F90895990F01
:1014C0000008550FAA0BE0E8FEEF16161706E8070E
:1014D000F907C0F012161306E407F50798F0621B2F
:1014E000730B840B950B39F40A2661F0232B242B04
:1014F000252B21F408950A2609F4A140A6958FEF23
:10150000811D811D089597F99F6780E870E060E074
:1015100008959FEF80EC089500240A94161617068C
:1015200018060906089500240A94121613061406D4
:1015300005060895092E0394000C11F4882352F037
:10154000BB0F40F4BF2B11F460FF04C06F5F7F4FEF
:101550008F4F9F4F089557FD9058440F551F59F0D6
:101560005F3F71F04795880F97FB991F61F09F3F90
:1015700079F087950895121613061406551FF2CFB9
:101580004695F1DF08C0161617061806991FF1CF09
:1015900086957105610508940895E894BB27662730
:1015A0007727CB0197F908958ADF08F48FEF089524
:1015B0000BD0C0CFB1DF28F0B6DF18F0952309F0CB
:1015C000A2CFA7CF1124EACFC6DFA0F3959FD1F316
:1015D000950F50E0551F629FF001729FBB27F00DE1
:1015E000B11D639FAA27F00DB11DAA1F649F662736
:1015F000B00DA11D661F829F2227B00DA11D621F85
:10160000739FB00DA11D621F839FA00D611D221F3E
:10161000749F3327A00D611D231F849F600D211D22
:10162000822F762F6A2F11249F5750408AF0E1F0C5
:1016300088234AF0EE0FFF1FBB1F661F771F881F0E
:1016400091505040A9F79E3F510570F05CCFA6CF56
:101650005F3FECF3983EDCF3869577956795B795F9
:10166000F795E7959F5FC1F7FE2B880F911D969523
:10167000879597F9089523DF880B990B0895A1E2C8
:101680001A2EAA1BBB1BFD010DC0AA1FBB1FEE1FFC
:10169000FF1FA217B307E407F50720F0A21BB30B47
:1016A000E40BF50B661F771F881F991F1A9469F7C3
:1016B00060957095809590959B01AC01BD01CF011F
:1016C0000895EE0FFF1F881F8BBF0790F691E02D46
:0E16D000199481E090E0F89400C0F894FFCFE8
:1016DE00713D0ABDA69BC4BC68916DBCBC7493BB26
:1016EE00BC74933B68916D3CA69BC43C713D0A3D16
:1016FE0000000000F901630192013F02C301A10144
:0E170E00B5016E616E00696E66006F76660052
:00000001FF
